{
  "address": "0xd3ae2CB0217AdC8f4334C7F44f5Ed9E76DBa910F",
  "abi": [
    {
      "inputs": [
        {
          "internalType": "address",
          "name": "_paymentToken",
          "type": "address"
        }
      ],
      "stateMutability": "nonpayable",
      "type": "constructor"
    },
    {
      "anonymous": false,
      "inputs": [
        {
          "indexed": true,
          "internalType": "address",
          "name": "creator",
          "type": "address"
        },
        {
          "indexed": false,
          "internalType": "bool",
          "name": "isTeaching",
          "type": "bool"
        },
        {
          "indexed": false,
          "internalType": "string",
          "name": "language",
          "type": "string"
        },
        {
          "indexed": false,
          "internalType": "uint256",
          "name": "rate",
          "type": "uint256"
        }
      ],
      "name": "ListingCreated",
      "type": "event"
    },
    {
      "anonymous": false,
      "inputs": [
        {
          "indexed": true,
          "internalType": "address",
          "name": "previousOwner",
          "type": "address"
        },
        {
          "indexed": true,
          "internalType": "address",
          "name": "newOwner",
          "type": "address"
        }
      ],
      "name": "OwnershipTransferred",
      "type": "event"
    },
    {
      "anonymous": false,
      "inputs": [
        {
          "indexed": true,
          "internalType": "address",
          "name": "user",
          "type": "address"
        },
        {
          "indexed": false,
          "internalType": "uint256",
          "name": "newScore",
          "type": "uint256"
        }
      ],
      "name": "ReputationUpdated",
      "type": "event"
    },
    {
      "anonymous": false,
      "inputs": [
        {
          "indexed": true,
          "internalType": "address",
          "name": "user",
          "type": "address"
        },
        {
          "indexed": false,
          "internalType": "string[]",
          "name": "languages",
          "type": "string[]"
        },
        {
          "indexed": false,
          "internalType": "string[]",
          "name": "certifications",
          "type": "string[]"
        }
      ],
      "name": "UserCreated",
      "type": "event"
    },
    {
      "inputs": [
        {
          "internalType": "bool",
          "name": "_isTeaching",
          "type": "bool"
        },
        {
          "internalType": "string",
          "name": "_language",
          "type": "string"
        },
        {
          "internalType": "uint256",
          "name": "_rate",
          "type": "uint256"
        }
      ],
      "name": "createListing",
      "outputs": [],
      "stateMutability": "nonpayable",
      "type": "function"
    },
    {
      "inputs": [
        {
          "internalType": "string[]",
          "name": "_languages",
          "type": "string[]"
        },
        {
          "internalType": "string[]",
          "name": "_certifications",
          "type": "string[]"
        }
      ],
      "name": "createUser",
      "outputs": [],
      "stateMutability": "nonpayable",
      "type": "function"
    },
    {
      "inputs": [
        {
          "internalType": "string",
          "name": "_language",
          "type": "string"
        },
        {
          "internalType": "bool",
          "name": "_isTeaching",
          "type": "bool"
        }
      ],
      "name": "getActiveListings",
      "outputs": [
        {
          "internalType": "address[]",
          "name": "creators",
          "type": "address[]"
        },
        {
          "internalType": "uint256[]",
          "name": "rates",
          "type": "uint256[]"
        }
      ],
      "stateMutability": "view",
      "type": "function"
    },
    {
      "inputs": [
        {
          "internalType": "address",
          "name": "_user",
          "type": "address"
        }
      ],
      "name": "getUser",
      "outputs": [
        {
          "internalType": "string[]",
          "name": "languages",
          "type": "string[]"
        },
        {
          "internalType": "string[]",
          "name": "certifications",
          "type": "string[]"
        },
        {
          "internalType": "uint256",
          "name": "reputation",
          "type": "uint256"
        },
        {
          "internalType": "bool",
          "name": "exists",
          "type": "bool"
        }
      ],
      "stateMutability": "view",
      "type": "function"
    },
    {
      "inputs": [
        {
          "internalType": "address",
          "name": "_user",
          "type": "address"
        }
      ],
      "name": "getUserListings",
      "outputs": [
        {
          "components": [
            {
              "internalType": "address",
              "name": "creator",
              "type": "address"
            },
            {
              "internalType": "bool",
              "name": "isTeaching",
              "type": "bool"
            },
            {
              "internalType": "string",
              "name": "language",
              "type": "string"
            },
            {
              "internalType": "uint256",
              "name": "rate",
              "type": "uint256"
            },
            {
              "internalType": "bool",
              "name": "isActive",
              "type": "bool"
            }
          ],
          "internalType": "struct EduLingo.Listing[]",
          "name": "",
          "type": "tuple[]"
        }
      ],
      "stateMutability": "view",
      "type": "function"
    },
    {
      "inputs": [],
      "name": "owner",
      "outputs": [
        {
          "internalType": "address",
          "name": "",
          "type": "address"
        }
      ],
      "stateMutability": "view",
      "type": "function"
    },
    {
      "inputs": [],
      "name": "paymentToken",
      "outputs": [
        {
          "internalType": "contract IERC20",
          "name": "",
          "type": "address"
        }
      ],
      "stateMutability": "view",
      "type": "function"
    },
    {
      "inputs": [],
      "name": "platformFee",
      "outputs": [
        {
          "internalType": "uint256",
          "name": "",
          "type": "uint256"
        }
      ],
      "stateMutability": "view",
      "type": "function"
    },
    {
      "inputs": [],
      "name": "renounceOwnership",
      "outputs": [],
      "stateMutability": "nonpayable",
      "type": "function"
    },
    {
      "inputs": [
        {
          "internalType": "address",
          "name": "newOwner",
          "type": "address"
        }
      ],
      "name": "transferOwnership",
      "outputs": [],
      "stateMutability": "nonpayable",
      "type": "function"
    },
    {
      "inputs": [
        {
          "internalType": "address",
          "name": "_newToken",
          "type": "address"
        }
      ],
      "name": "updatePaymentToken",
      "outputs": [],
      "stateMutability": "nonpayable",
      "type": "function"
    },
    {
      "inputs": [
        {
          "internalType": "uint256",
          "name": "_newFee",
          "type": "uint256"
        }
      ],
      "name": "updatePlatformFee",
      "outputs": [],
      "stateMutability": "nonpayable",
      "type": "function"
    },
    {
      "inputs": [
        {
          "internalType": "address",
          "name": "_user",
          "type": "address"
        },
        {
          "internalType": "uint256",
          "name": "_score",
          "type": "uint256"
        }
      ],
      "name": "updateReputation",
      "outputs": [],
      "stateMutability": "nonpayable",
      "type": "function"
    },
    {
      "inputs": [
        {
          "internalType": "string[]",
          "name": "_languages",
          "type": "string[]"
        },
        {
          "internalType": "string[]",
          "name": "_certifications",
          "type": "string[]"
        }
      ],
      "name": "updateUser",
      "outputs": [],
      "stateMutability": "nonpayable",
      "type": "function"
    },
    {
      "inputs": [
        {
          "internalType": "address",
          "name": "",
          "type": "address"
        },
        {
          "internalType": "uint256",
          "name": "",
          "type": "uint256"
        }
      ],
      "name": "userListings",
      "outputs": [
        {
          "internalType": "address",
          "name": "creator",
          "type": "address"
        },
        {
          "internalType": "bool",
          "name": "isTeaching",
          "type": "bool"
        },
        {
          "internalType": "string",
          "name": "language",
          "type": "string"
        },
        {
          "internalType": "uint256",
          "name": "rate",
          "type": "uint256"
        },
        {
          "internalType": "bool",
          "name": "isActive",
          "type": "bool"
        }
      ],
      "stateMutability": "view",
      "type": "function"
    },
    {
      "inputs": [
        {
          "internalType": "address",
          "name": "",
          "type": "address"
        }
      ],
      "name": "users",
      "outputs": [
        {
          "internalType": "uint256",
          "name": "reputation",
          "type": "uint256"
        },
        {
          "internalType": "bool",
          "name": "exists",
          "type": "bool"
        }
      ],
      "stateMutability": "view",
      "type": "function"
    }
  ],
  "transactionHash": "0x21116a932b415fbc52c71d5c887d2e4c3a96871c6c9b18646a721b89a23f680e",
  "args": [
    "0x805349Ac5bd0D25d5cE7E34f7bC28FCCA3e6898e"
  ],
  "numDeployments": 1,
  "solcInputHash": "d5bcd95a384385b8535fc70634ba409b",
  "bytecode": "0x6080604052600560045534801561001557600080fd5b50604051611a7b380380611a7b833981016040819052610034916100b9565b600160005561004233610067565b600580546001600160a01b0319166001600160a01b03929092169190911790556100e9565b600180546001600160a01b038381166001600160a01b0319831681179093556040519116919082907f8be0079c531659141344cd1fd0a4f28419497f9722a3daafe3b4186f6b6457e090600090a35050565b6000602082840312156100cb57600080fd5b81516001600160a01b03811681146100e257600080fd5b9392505050565b611983806100f86000396000f3fe608060405234801561001057600080fd5b50600436106101005760003560e01c8063a87430ba11610097578063e27fdfe311610066578063e27fdfe31461025f578063eb18a9d814610272578063f2fde38b14610292578063f5c91a08146102a557600080fd5b8063a87430ba146101e2578063aa0b598814610226578063ac2e515914610239578063b9a185e81461024c57600080fd5b80636f77926b116100d35780636f77926b14610182578063715018a6146101a557806386cfa7d3146101ad5780638da5cb5b146101d157600080fd5b806326232a2e146101055780633013ce29146101215780634ccf1b341461014c5780636b599c6214610161575b600080fd5b61010e60045481565b6040519081526020015b60405180910390f35b600554610134906001600160a01b031681565b6040516001600160a01b039091168152602001610118565b61015f61015a366004611212565b6102b8565b005b61017461016f3660046112fb565b6102e2565b604051610118929190611349565b610195610190366004611212565b6106e9565b6040516101189493929190611468565b61015f6108d6565b6101c06101bb3660046114a6565b6108ea565b6040516101189594939291906114d0565b6001546001600160a01b0316610134565b6102116101f0366004611212565b60026020819052600091825260409091209081015460039091015460ff1682565b60408051928352901515602083015201610118565b61015f610234366004611515565b6109d4565b61015f6102473660046115cd565b610a26565b61015f61025a3660046115cd565b610b22565b61015f61026d366004611631565b610c5e565b610285610280366004611212565b610dbc565b6040516101189190611688565b61015f6102a0366004611212565b610f0a565b61015f6102b33660046114a6565b610f83565b6102c061108d565b600580546001600160a01b0319166001600160a01b0392909216919091179055565b6060806000805b33600090815260036020526040902054811015610470573360009081526003602052604081208054839081106103215761032161172c565b60009182526020918290206040805160a081018252600490930290910180546001600160a01b038116845260ff600160a01b909104161515938301939093526001830180549293929184019161037690611742565b80601f01602080910402602001604051908101604052809291908181526020018280546103a290611742565b80156103ef5780601f106103c4576101008083540402835291602001916103ef565b820191906000526020600020905b8154815290600101906020018083116103d257829003601f168201915b50505091835250506002820154602082015260039091015460ff1615156040909101526080810151909150801561042d575085151581602001511515145b801561044a57508680519060200120816040015180519060200120145b1561045d57826104598161177c565b9350505b50806104688161177c565b9150506102e9565b508067ffffffffffffffff81111561048a5761048a611234565b6040519080825280602002602001820160405280156104b3578160200160208202803683370190505b5092508067ffffffffffffffff8111156104cf576104cf611234565b6040519080825280602002602001820160405280156104f8578160200160208202803683370190505b5091506000805b336000908152600360205260409020548110156106df573360009081526003602052604081208054839081106105375761053761172c565b60009182526020918290206040805160a081018252600490930290910180546001600160a01b038116845260ff600160a01b909104161515938301939093526001830180549293929184019161058c90611742565b80601f01602080910402602001604051908101604052809291908181526020018280546105b890611742565b80156106055780601f106105da57610100808354040283529160200191610605565b820191906000526020600020905b8154815290600101906020018083116105e857829003601f168201915b50505091835250506002820154602082015260039091015460ff16151560409091015260808101519091508015610643575086151581602001511515145b801561066057508780519060200120816040015180519060200120145b156106cc57806000015186848151811061067c5761067c61172c565b60200260200101906001600160a01b031690816001600160a01b03168152505080606001518584815181106106b3576106b361172c565b6020908102919091010152826106c88161177c565b9350505b50806106d78161177c565b9150506104ff565b5050509250929050565b6001600160a01b03811660009081526002602081815260408084209283015460038401548454835181860281018601909452808452606096879690958695919485946001860194919360ff9091169290918691899084015b828210156107ed57838290600052602060002001805461076090611742565b80601f016020809104026020016040519081016040528092919081815260200182805461078c90611742565b80156107d95780601f106107ae576101008083540402835291602001916107d9565b820191906000526020600020905b8154815290600101906020018083116107bc57829003601f168201915b505050505081526020019060010190610741565b50505050935082805480602002602001604051908101604052809291908181526020016000905b828210156108c057838290600052602060002001805461083390611742565b80601f016020809104026020016040519081016040528092919081815260200182805461085f90611742565b80156108ac5780601f10610881576101008083540402835291602001916108ac565b820191906000526020600020905b81548152906001019060200180831161088f57829003601f168201915b505050505081526020019060010190610814565b5050505092509450945094509450509193509193565b6108de61108d565b6108e860006110e7565b565b6003602052816000526040600020818154811061090657600080fd5b6000918252602090912060049091020180546001820180546001600160a01b0383169550600160a01b90920460ff1693509061094190611742565b80601f016020809104026020016040519081016040528092919081815260200182805461096d90611742565b80156109ba5780601f1061098f576101008083540402835291602001916109ba565b820191906000526020600020905b81548152906001019060200180831161099d57829003601f168201915b50505050600283015460039093015491929160ff16905085565b6109dc61108d565b600a811115610a215760405162461bcd60e51b815260206004820152600c60248201526b08ccaca40e8dede40d0d2ced60a31b60448201526064015b60405180910390fd5b600455565b3360009081526002602052604090206003015460ff16610a7e5760405162461bcd60e51b8152602060048201526013602482015272155cd95c88191bd95cc81b9bdd08195e1a5cdd606a1b6044820152606401610a18565b6000825111610a9f5760405162461bcd60e51b8152600401610a18906117a3565b33600090815260026020908152604090912083519091610ac3918391860190611139565b508151610ad99060018301906020850190611139565b50336001600160a01b03167feaf1f759a8fc7b7c181880c5b216852a7a819bd63f508d5bffb975a824dbfbd78484604051610b159291906117e5565b60405180910390a2505050565b3360009081526002602052604090206003015460ff1615610b7b5760405162461bcd60e51b81526020600482015260136024820152725573657220616c72656164792065786973747360681b6044820152606401610a18565b6000825111610b9c5760405162461bcd60e51b8152600401610a18906117a3565b6040805160808101825283815260208082018490526032828401526001606083015233600090815260028252929092208151805192939192610be19284920190611139565b506020828101518051610bfa9260018501920190611139565b5060408281015160028301556060909201516003909101805460ff19169115159190911790555133907feaf1f759a8fc7b7c181880c5b216852a7a819bd63f508d5bffb975a824dbfbd790610c5290859085906117e5565b60405180910390a25050565b3360009081526002602052604090206003015460ff16610cc05760405162461bcd60e51b815260206004820152601960248201527f43726561746520757365722070726f66696c65206669727374000000000000006044820152606401610a18565b6040805160a0810182523380825285151560208084019182528385018781526060850187905260016080860181905260009485526003835295842080548088018255908552919093208451600490920201805492511515600160a01b026001600160a81b03199093166001600160a01b03929092169190911791909117815590519192839290820190610d539082611862565b50606082015160028201556080909101516003909101805460ff191691151591909117905560405133907f3213574d3079fec3580ad4788eb3aaa0d77ee0bcc86d54f5f58f91cea23c30e690610dae90879087908790611922565b60405180910390a250505050565b6001600160a01b0381166000908152600360209081526040808320805482518185028101850190935280835260609492939192909184015b82821015610eff5760008481526020908190206040805160a0810182526004860290920180546001600160a01b0381168452600160a01b900460ff1615159383019390935260018301805492939291840191610e4f90611742565b80601f0160208091040260200160405190810160405280929190818152602001828054610e7b90611742565b8015610ec85780601f10610e9d57610100808354040283529160200191610ec8565b820191906000526020600020905b815481529060010190602001808311610eab57829003601f168201915b5050509183525050600282015460208083019190915260039092015460ff1615156040909101529082526001929092019101610df4565b505050509050919050565b610f1261108d565b6001600160a01b038116610f775760405162461bcd60e51b815260206004820152602660248201527f4f776e61626c653a206e6577206f776e657220697320746865207a65726f206160448201526564647265737360d01b6064820152608401610a18565b610f80816110e7565b50565b610f8b61108d565b6001600160a01b03821660009081526002602052604090206003015460ff16610fec5760405162461bcd60e51b8152602060048201526013602482015272155cd95c88191bd95cc81b9bdd08195e1a5cdd606a1b6044820152606401610a18565b606481111561103d5760405162461bcd60e51b815260206004820152601f60248201527f53636f7265206d757374206265206265747765656e203020616e6420313030006044820152606401610a18565b6001600160a01b03821660008181526002602081905260409182902001839055517ffc577563f1b9a0461e24abef1e1fcc0d33d3d881f20b5df6dda59de4aae2c82190610c529084815260200190565b6001546001600160a01b031633146108e85760405162461bcd60e51b815260206004820181905260248201527f4f776e61626c653a2063616c6c6572206973206e6f7420746865206f776e65726044820152606401610a18565b600180546001600160a01b038381166001600160a01b0319831681179093556040519116919082907f8be0079c531659141344cd1fd0a4f28419497f9722a3daafe3b4186f6b6457e090600090a35050565b82805482825590600052602060002090810192821561117f579160200282015b8281111561117f578251829061116f9082611862565b5091602001919060010190611159565b5061118b92915061118f565b5090565b8082111561118b5760006111a382826111ac565b5060010161118f565b5080546111b890611742565b6000825580601f106111c8575050565b601f016020900490600052602060002090810190610f8091905b8082111561118b57600081556001016111e2565b80356001600160a01b038116811461120d57600080fd5b919050565b60006020828403121561122457600080fd5b61122d826111f6565b9392505050565b634e487b7160e01b600052604160045260246000fd5b604051601f8201601f1916810167ffffffffffffffff8111828210171561127357611273611234565b604052919050565b600082601f83011261128c57600080fd5b813567ffffffffffffffff8111156112a6576112a6611234565b6112b9601f8201601f191660200161124a565b8181528460208386010111156112ce57600080fd5b816020850160208301376000918101602001919091529392505050565b8035801515811461120d57600080fd5b6000806040838503121561130e57600080fd5b823567ffffffffffffffff81111561132557600080fd5b6113318582860161127b565b925050611340602084016112eb565b90509250929050565b604080825283519082018190526000906020906060840190828701845b8281101561138b5781516001600160a01b031684529284019290840190600101611366565b5050508381038285015284518082528583019183019060005b818110156113c0578351835292840192918401916001016113a4565b5090979650505050505050565b6000815180845260005b818110156113f3576020818501810151868301820152016113d7565b506000602082860101526020601f19601f83011685010191505092915050565b600081518084526020808501808196508360051b8101915082860160005b8581101561145b5782840389526114498483516113cd565b98850198935090840190600101611431565b5091979650505050505050565b60808152600061147b6080830187611413565b828103602084015261148d8187611413565b6040840195909552505090151560609091015292915050565b600080604083850312156114b957600080fd5b6114c2836111f6565b946020939093013593505050565b6001600160a01b0386168152841515602082015260a0604082018190526000906114fc908301866113cd565b6060830194909452509015156080909101529392505050565b60006020828403121561152757600080fd5b5035919050565b600082601f83011261153f57600080fd5b8135602067ffffffffffffffff8083111561155c5761155c611234565b8260051b61156b83820161124a565b938452858101830193838101908886111561158557600080fd5b84880192505b858310156115c1578235848111156115a35760008081fd5b6115b18a87838c010161127b565b835250918401919084019061158b565b98975050505050505050565b600080604083850312156115e057600080fd5b823567ffffffffffffffff808211156115f857600080fd5b6116048683870161152e565b9350602085013591508082111561161a57600080fd5b506116278582860161152e565b9150509250929050565b60008060006060848603121561164657600080fd5b61164f846112eb565b9250602084013567ffffffffffffffff81111561166b57600080fd5b6116778682870161127b565b925050604084013590509250925092565b60006020808301818452808551808352604092508286019150828160051b87010184880160005b8381101561171e57888303603f19018552815180516001600160a01b03168452878101511515888501528681015160a0888601819052906116f2828701826113cd565b6060848101519088015260809384015115159390960192909252505093860193908601906001016116af565b509098975050505050505050565b634e487b7160e01b600052603260045260246000fd5b600181811c9082168061175657607f821691505b60208210810361177657634e487b7160e01b600052602260045260246000fd5b50919050565b60006001820161179c57634e487b7160e01b600052601160045260246000fd5b5060010190565b60208082526022908201527f4d7573742073706563696679206174206c65617374206f6e65206c616e677561604082015261676560f01b606082015260800190565b6040815260006117f86040830185611413565b828103602084015261180a8185611413565b95945050505050565b601f82111561185d57600081815260208120601f850160051c8101602086101561183a5750805b601f850160051c820191505b8181101561185957828155600101611846565b5050505b505050565b815167ffffffffffffffff81111561187c5761187c611234565b6118908161188a8454611742565b84611813565b602080601f8311600181146118c557600084156118ad5750858301515b600019600386901b1c1916600185901b178555611859565b600085815260208120601f198616915b828110156118f4578886015182559484019460019091019084016118d5565b50858210156119125787850151600019600388901b60f8161c191681555b5050505050600190811b01905550565b831515815260606020820152600061193d60608301856113cd565b905082604083015294935050505056fea26469706673582212206d3d15234ed14280c30750aa7ad4bdcf34d0421b8ce0b1a4db7503d0be64452664736f6c63430008110033",
  "devdoc": {
    "kind": "dev",
    "methods": {
      "owner()": {
        "details": "Returns the address of the current owner."
      },
      "renounceOwnership()": {
        "details": "Leaves the contract without owner. It will not be possible to call `onlyOwner` functions. Can only be called by the current owner. NOTE: Renouncing ownership will leave the contract without an owner, thereby disabling any functionality that is only available to the owner."
      },
      "transferOwnership(address)": {
        "details": "Transfers ownership of the contract to a new account (`newOwner`). Can only be called by the current owner."
      }
    },
    "version": 1
  },
  "userdoc": {
    "kind": "user",
    "methods": {},
    "version": 1
  },
  "storageLayout": {
    "storage": [
      {
        "astId": 123,
        "contract": "contracts/contract.sol:EduLingo",
        "label": "_status",
        "offset": 0,
        "slot": "0",
        "type": "t_uint256"
      },
      {
        "astId": 7,
        "contract": "contracts/contract.sol:EduLingo",
        "label": "_owner",
        "offset": 0,
        "slot": "1",
        "type": "t_address"
      },
      {
        "astId": 453,
        "contract": "contracts/contract.sol:EduLingo",
        "label": "users",
        "offset": 0,
        "slot": "2",
        "type": "t_mapping(t_address,t_struct(User)437_storage)"
      },
      {
        "astId": 459,
        "contract": "contracts/contract.sol:EduLingo",
        "label": "userListings",
        "offset": 0,
        "slot": "3",
        "type": "t_mapping(t_address,t_array(t_struct(Listing)448_storage)dyn_storage)"
      },
      {
        "astId": 462,
        "contract": "contracts/contract.sol:EduLingo",
        "label": "platformFee",
        "offset": 0,
        "slot": "4",
        "type": "t_uint256"
      },
      {
        "astId": 465,
        "contract": "contracts/contract.sol:EduLingo",
        "label": "paymentToken",
        "offset": 0,
        "slot": "5",
        "type": "t_contract(IERC20)255"
      }
    ],
    "types": {
      "t_address": {
        "encoding": "inplace",
        "label": "address",
        "numberOfBytes": "20"
      },
      "t_array(t_string_storage)dyn_storage": {
        "base": "t_string_storage",
        "encoding": "dynamic_array",
        "label": "string[]",
        "numberOfBytes": "32"
      },
      "t_array(t_struct(Listing)448_storage)dyn_storage": {
        "base": "t_struct(Listing)448_storage",
        "encoding": "dynamic_array",
        "label": "struct EduLingo.Listing[]",
        "numberOfBytes": "32"
      },
      "t_bool": {
        "encoding": "inplace",
        "label": "bool",
        "numberOfBytes": "1"
      },
      "t_contract(IERC20)255": {
        "encoding": "inplace",
        "label": "contract IERC20",
        "numberOfBytes": "20"
      },
      "t_mapping(t_address,t_array(t_struct(Listing)448_storage)dyn_storage)": {
        "encoding": "mapping",
        "key": "t_address",
        "label": "mapping(address => struct EduLingo.Listing[])",
        "numberOfBytes": "32",
        "value": "t_array(t_struct(Listing)448_storage)dyn_storage"
      },
      "t_mapping(t_address,t_struct(User)437_storage)": {
        "encoding": "mapping",
        "key": "t_address",
        "label": "mapping(address => struct EduLingo.User)",
        "numberOfBytes": "32",
        "value": "t_struct(User)437_storage"
      },
      "t_string_storage": {
        "encoding": "bytes",
        "label": "string",
        "numberOfBytes": "32"
      },
      "t_struct(Listing)448_storage": {
        "encoding": "inplace",
        "label": "struct EduLingo.Listing",
        "members": [
          {
            "astId": 439,
            "contract": "contracts/contract.sol:EduLingo",
            "label": "creator",
            "offset": 0,
            "slot": "0",
            "type": "t_address"
          },
          {
            "astId": 441,
            "contract": "contracts/contract.sol:EduLingo",
            "label": "isTeaching",
            "offset": 20,
            "slot": "0",
            "type": "t_bool"
          },
          {
            "astId": 443,
            "contract": "contracts/contract.sol:EduLingo",
            "label": "language",
            "offset": 0,
            "slot": "1",
            "type": "t_string_storage"
          },
          {
            "astId": 445,
            "contract": "contracts/contract.sol:EduLingo",
            "label": "rate",
            "offset": 0,
            "slot": "2",
            "type": "t_uint256"
          },
          {
            "astId": 447,
            "contract": "contracts/contract.sol:EduLingo",
            "label": "isActive",
            "offset": 0,
            "slot": "3",
            "type": "t_bool"
          }
        ],
        "numberOfBytes": "128"
      },
      "t_struct(User)437_storage": {
        "encoding": "inplace",
        "label": "struct EduLingo.User",
        "members": [
          {
            "astId": 429,
            "contract": "contracts/contract.sol:EduLingo",
            "label": "languages",
            "offset": 0,
            "slot": "0",
            "type": "t_array(t_string_storage)dyn_storage"
          },
          {
            "astId": 432,
            "contract": "contracts/contract.sol:EduLingo",
            "label": "certifications",
            "offset": 0,
            "slot": "1",
            "type": "t_array(t_string_storage)dyn_storage"
          },
          {
            "astId": 434,
            "contract": "contracts/contract.sol:EduLingo",
            "label": "reputation",
            "offset": 0,
            "slot": "2",
            "type": "t_uint256"
          },
          {
            "astId": 436,
            "contract": "contracts/contract.sol:EduLingo",
            "label": "exists",
            "offset": 0,
            "slot": "3",
            "type": "t_bool"
          }
        ],
        "numberOfBytes": "128"
      },
      "t_uint256": {
        "encoding": "inplace",
        "label": "uint256",
        "numberOfBytes": "32"
      }
    }
  }
}